{
  "contractName": "Deal",
  "abi": [
    {
      "inputs": [
        {
          "internalType": "address",
          "name": "buyer",
          "type": "address"
        }
      ],
      "stateMutability": "nonpayable",
      "type": "constructor"
    },
    {
      "anonymous": false,
      "inputs": [
        {
          "indexed": false,
          "internalType": "address",
          "name": "buyerAddr",
          "type": "address"
        },
        {
          "indexed": false,
          "internalType": "string",
          "name": "product",
          "type": "string"
        },
        {
          "indexed": false,
          "internalType": "uint256",
          "name": "quantity",
          "type": "uint256"
        },
        {
          "indexed": false,
          "internalType": "uint256",
          "name": "orderNumber",
          "type": "uint256"
        }
      ],
      "name": "OnOrderPlaced",
      "type": "event"
    },
    {
      "inputs": [],
      "name": "orderCount",
      "outputs": [
        {
          "internalType": "uint256",
          "name": "",
          "type": "uint256"
        }
      ],
      "stateMutability": "view",
      "type": "function"
    },
    {
      "inputs": [
        {
          "internalType": "uint256",
          "name": "",
          "type": "uint256"
        }
      ],
      "name": "orders",
      "outputs": [
        {
          "components": [
            {
              "internalType": "string",
              "name": "name",
              "type": "string"
            },
            {
              "internalType": "uint256",
              "name": "quantity",
              "type": "uint256"
            },
            {
              "internalType": "uint256",
              "name": "price",
              "type": "uint256"
            }
          ],
          "internalType": "struct Deal.Product",
          "name": "product",
          "type": "tuple"
        },
        {
          "components": [
            {
              "internalType": "address payable",
              "name": "courierAddr",
              "type": "address"
            },
            {
              "internalType": "uint256",
              "name": "price",
              "type": "uint256"
            },
            {
              "internalType": "uint256",
              "name": "date",
              "type": "uint256"
            }
          ],
          "internalType": "struct Deal.Shipment",
          "name": "shipment",
          "type": "tuple"
        },
        {
          "internalType": "uint256",
          "name": "total",
          "type": "uint256"
        },
        {
          "internalType": "bool",
          "name": "initialized",
          "type": "bool"
        }
      ],
      "stateMutability": "view",
      "type": "function"
    },
    {
      "inputs": [
        {
          "internalType": "string",
          "name": "product",
          "type": "string"
        },
        {
          "internalType": "uint256",
          "name": "quantity",
          "type": "uint256"
        },
        {
          "internalType": "address",
          "name": "courierAddr",
          "type": "address"
        }
      ],
      "name": "placeOrder",
      "outputs": [],
      "stateMutability": "payable",
      "type": "function"
    },
    {
      "inputs": [
        {
          "internalType": "uint256",
          "name": "number",
          "type": "uint256"
        }
      ],
      "name": "getOrder",
      "outputs": [
        {
          "internalType": "address",
          "name": "buyerAddr",
          "type": "address"
        },
        {
          "internalType": "string",
          "name": "product",
          "type": "string"
        },
        {
          "internalType": "uint256",
          "name": "quantity",
          "type": "uint256"
        },
        {
          "internalType": "uint256",
          "name": "total",
          "type": "uint256"
        },
        {
          "internalType": "uint256",
          "name": "date",
          "type": "uint256"
        }
      ],
      "stateMutability": "view",
      "type": "function"
    }
  ],
  "bytecode": "0x60806040523480156200001157600080fd5b50604051620010d6380380620010d6833981810160405281019062000037919062000137565b33600060010160006101000a81548173ffffffffffffffffffffffffffffffffffffffff021916908373ffffffffffffffffffffffffffffffffffffffff160217905550806000800160006101000a81548173ffffffffffffffffffffffffffffffffffffffff021916908373ffffffffffffffffffffffffffffffffffffffff16021790555060006003819055505062000169565b600080fd5b600073ffffffffffffffffffffffffffffffffffffffff82169050919050565b6000620000ff82620000d2565b9050919050565b6200011181620000f2565b81146200011d57600080fd5b50565b600081519050620001318162000106565b92915050565b60006020828403121562000150576200014f620000cd565b5b6000620001608482850162000120565b91505092915050565b610f5d80620001796000396000f3fe60806040526004361061003f5760003560e01c806303124ded146100445780632453ffa814610060578063a85c38ef1461008b578063d09ef241146100cb575b600080fd5b61005e6004803603810190610059919061076c565b61010c565b005b34801561006c57600080fd5b506100756103a1565b60405161008291906107ef565b60405180910390f35b34801561009757600080fd5b506100b260048036038101906100ad919061080a565b6103a7565b6040516100c294939291906109a4565b60405180910390f35b3480156100d757600080fd5b506100f260048036038101906100ed919061080a565b610508565b604051610103959493929190610a49565b60405180910390f35b3373ffffffffffffffffffffffffffffffffffffffff16600060010160009054906101000a900473ffffffffffffffffffffffffffffffffffffffff1673ffffffffffffffffffffffffffffffffffffffff161461016957600080fd5b6000600583600a61017a9190610ad2565b6101849190610b14565b90506040518060800160405280604051806060016040528088888080601f016020809104026020016040519081016040528093929190818152602001838380828437600081840152601f19601f820116905080830192505050505050508152602001868152602001600a815250815260200160405180606001604052808573ffffffffffffffffffffffffffffffffffffffff1681526020016005815260200142815250815260200182815260200160011515815250600260006003548152602001908152602001600020600082015181600001600082015181600001908161026d9190610d83565b506020820151816001015560408201518160020155505060208201518160030160008201518160000160006101000a81548173ffffffffffffffffffffffffffffffffffffffff021916908373ffffffffffffffffffffffffffffffffffffffff160217905550602082015181600101556040820151816002015550506040820151816006015560608201518160070160006101000a81548160ff021916908315150217905550905050600060035490506003600081548092919061033190610e55565b91905055507fa88698314ef443be76a8d3cc3d3e7a00cb31ba25699e6a41d0354975612f7b786000800160009054906101000a900473ffffffffffffffffffffffffffffffffffffffff1687878785604051610391959493929190610ed9565b60405180910390a1505050505050565b60035481565b6002602052806000526040600020600091509050806000016040518060600160405290816000820180546103da90610ba6565b80601f016020809104026020016040519081016040528092919081815260200182805461040690610ba6565b80156104535780601f1061042857610100808354040283529160200191610453565b820191906000526020600020905b81548152906001019060200180831161043657829003601f168201915b505050505081526020016001820154815260200160028201548152505090806003016040518060600160405290816000820160009054906101000a900473ffffffffffffffffffffffffffffffffffffffff1673ffffffffffffffffffffffffffffffffffffffff1673ffffffffffffffffffffffffffffffffffffffff16815260200160018201548152602001600282015481525050908060060154908060070160009054906101000a900460ff16905084565b6000606060008060006002600087815260200190815260200160002060070160009054906101000a900460ff1661053e57600080fd5b6000800160009054906101000a900473ffffffffffffffffffffffffffffffffffffffff16600260008881526020019081526020016000206000016000016002600089815260200190815260200160002060000160010154600260008a815260200190815260200160002060000160020154600260008b8152602001908152602001600020600301600201548380546105d690610ba6565b80601f016020809104026020016040519081016040528092919081815260200182805461060290610ba6565b801561064f5780601f106106245761010080835404028352916020019161064f565b820191906000526020600020905b81548152906001019060200180831161063257829003601f168201915b505050505093509450945094509450945091939590929450565b600080fd5b600080fd5b600080fd5b600080fd5b600080fd5b60008083601f84011261069857610697610673565b5b8235905067ffffffffffffffff8111156106b5576106b4610678565b5b6020830191508360018202830111156106d1576106d061067d565b5b9250929050565b6000819050919050565b6106eb816106d8565b81146106f657600080fd5b50565b600081359050610708816106e2565b92915050565b600073ffffffffffffffffffffffffffffffffffffffff82169050919050565b60006107398261070e565b9050919050565b6107498161072e565b811461075457600080fd5b50565b60008135905061076681610740565b92915050565b6000806000806060858703121561078657610785610669565b5b600085013567ffffffffffffffff8111156107a4576107a361066e565b5b6107b087828801610682565b945094505060206107c3878288016106f9565b92505060406107d487828801610757565b91505092959194509250565b6107e9816106d8565b82525050565b600060208201905061080460008301846107e0565b92915050565b6000602082840312156108205761081f610669565b5b600061082e848285016106f9565b91505092915050565b600081519050919050565b600082825260208201905092915050565b60005b83811015610871578082015181840152602081019050610856565b60008484015250505050565b6000601f19601f8301169050919050565b600061089982610837565b6108a38185610842565b93506108b3818560208601610853565b6108bc8161087d565b840191505092915050565b6108d0816106d8565b82525050565b600060608301600083015184820360008601526108f3828261088e565b915050602083015161090860208601826108c7565b50604083015161091b60408601826108c7565b508091505092915050565b60006109318261070e565b9050919050565b61094181610926565b82525050565b60608201600082015161095d6000850182610938565b50602082015161097060208501826108c7565b50604082015161098360408501826108c7565b50505050565b60008115159050919050565b61099e81610989565b82525050565b600060c08201905081810360008301526109be81876108d6565b90506109cd6020830186610947565b6109da60808301856107e0565b6109e760a0830184610995565b95945050505050565b6109f98161072e565b82525050565b600082825260208201905092915050565b6000610a1b82610837565b610a2581856109ff565b9350610a35818560208601610853565b610a3e8161087d565b840191505092915050565b600060a082019050610a5e60008301886109f0565b8181036020830152610a708187610a10565b9050610a7f60408301866107e0565b610a8c60608301856107e0565b610a9960808301846107e0565b9695505050505050565b7f4e487b7100000000000000000000000000000000000000000000000000000000600052601160045260246000fd5b6000610add826106d8565b9150610ae8836106d8565b9250828202610af6816106d8565b91508282048414831517610b0d57610b0c610aa3565b5b5092915050565b6000610b1f826106d8565b9150610b2a836106d8565b9250828201905080821115610b4257610b41610aa3565b5b92915050565b7f4e487b7100000000000000000000000000000000000000000000000000000000600052604160045260246000fd5b7f4e487b7100000000000000000000000000000000000000000000000000000000600052602260045260246000fd5b60006002820490506001821680610bbe57607f821691505b602082108103610bd157610bd0610b77565b5b50919050565b60008190508160005260206000209050919050565b60006020601f8301049050919050565b600082821b905092915050565b600060088302610c397fffffffffffffffffffffffffffffffffffffffffffffffffffffffffffffffff82610bfc565b610c438683610bfc565b95508019841693508086168417925050509392505050565b6000819050919050565b6000610c80610c7b610c76846106d8565b610c5b565b6106d8565b9050919050565b6000819050919050565b610c9a83610c65565b610cae610ca682610c87565b848454610c09565b825550505050565b600090565b610cc3610cb6565b610cce818484610c91565b505050565b5b81811015610cf257610ce7600082610cbb565b600181019050610cd4565b5050565b601f821115610d3757610d0881610bd7565b610d1184610bec565b81016020851015610d20578190505b610d34610d2c85610bec565b830182610cd3565b50505b505050565b600082821c905092915050565b6000610d5a60001984600802610d3c565b1980831691505092915050565b6000610d738383610d49565b9150826002028217905092915050565b610d8c82610837565b67ffffffffffffffff811115610da557610da4610b48565b5b610daf8254610ba6565b610dba828285610cf6565b600060209050601f831160018114610ded5760008415610ddb578287015190505b610de58582610d67565b865550610e4d565b601f198416610dfb86610bd7565b60005b82811015610e2357848901518255600182019150602085019450602081019050610dfe565b86831015610e405784890151610e3c601f891682610d49565b8355505b6001600288020188555050505b505050505050565b6000610e60826106d8565b91507fffffffffffffffffffffffffffffffffffffffffffffffffffffffffffffffff8203610e9257610e91610aa3565b5b600182019050919050565b82818337600083830152505050565b6000610eb883856109ff565b9350610ec5838584610e9d565b610ece8361087d565b840190509392505050565b6000608082019050610eee60008301886109f0565b8181036020830152610f01818688610eac565b9050610f1060408301856107e0565b610f1d60608301846107e0565b969550505050505056fea264697066735822122065a8d71173ed94bb0c0f6624b41d2619dc0ff011b113e28eecf841c8bfcab7ba64736f6c63430008110033",
  "immutableReferences": {},
  "source": "\n// SPDX-License-Identifier: MIT\npragma solidity >=0.4.22 <0.9.0;\n\ncontract Deal {\n\tstruct Parties\n\t{\n\t\taddress buyerAddr; // payable - Enable sending money to them.\n\t\taddress payable sellerAddr; // payable - Enable sending money to them.\n\t}\n\n\tstruct Product\n\t{\n\t\tstring name;\n\t\tuint quantity;\n\t\tuint price; // Price per single product.\n\t}\n\n\tstruct Shipment\n\t{\n\t\taddress payable courierAddr;\n\t\tuint price;\n\t\tuint date;\n\t}\n\n\tstruct Order\n\t{\n\t\tProduct product;\n\t\tShipment shipment;\n\t\tuint total;\n\t\tbool initialized;\n\t}\n\n\tParties parties;\n\tmapping (uint => Order) public orders;\n\tuint public orderCount;\n\n\tevent OnOrderPlaced(address buyerAddr, string product, uint quantity, uint orderNumber);\n\n\tconstructor(address buyer) public {\n\t\tparties.sellerAddr = payable(msg.sender);\n\t\tparties.buyerAddr = buyer;\n\t\torderCount = 0;\n\t}\n\n\tfunction placeOrder(string calldata product, uint quantity, address courierAddr) public payable {\n\t\trequire(parties.sellerAddr == msg.sender);\n\n\t\tuint total = 10 * quantity + 5;\n\n\t\torders[orderCount] = Order(\n\t\t\tProduct(product, quantity, 10),\n\t\t\tShipment(payable(courierAddr), 5, block.timestamp),\n\t\t\ttotal,\n\t\t\ttrue\n\t\t);\n\n\t\tuint id = orderCount;\n\t\torderCount++;\n\n\t\temit OnOrderPlaced(\n\t\t\tparties.buyerAddr,\n\t\t\tproduct,\n\t\t\tquantity,\n\t\t\tid\n\t\t);\n\t}\n\n\tfunction getOrder(uint number) view public returns(address buyerAddr, string memory product, uint quantity, uint total, uint date) {\n\t\trequire(orders[number].initialized);\n\n\t\treturn (\n\t\t\tparties.buyerAddr,\n\t\t\torders[number].product.name,\n\t\t\torders[number].product.quantity,\n\t\t\torders[number].product.price,\n\t\t\torders[number].shipment.date\n\t\t);\n\t}\n}\n",
  "sourcePath": "/home/jorisb/Desktop/the-contract-program/smart-contract/contracts/Deal.sol",
  "compiler": {
    "name": "solc",
    "version": "0.8.17+commit.8df45f5f.Emscripten.clang"
  },
  "schemaVersion": "3.4.11",
  "updatedAt": "2022-12-11T19:57:41.148Z",
  "devdoc": {
    "kind": "dev",
    "methods": {},
    "version": 1
  },
  "userdoc": {
    "kind": "user",
    "methods": {},
    "version": 1
  }
}